{
  "contractName": "Quizy",
  "abi": [
    {
      "inputs": [],
      "stateMutability": "nonpayable",
      "type": "constructor"
    },
    {
      "inputs": [],
      "name": "BalanceNotEnough",
      "type": "error"
    },
    {
      "inputs": [],
      "name": "NotCreator",
      "type": "error"
    },
    {
      "stateMutability": "payable",
      "type": "fallback",
      "payable": true
    },
    {
      "inputs": [
        {
          "internalType": "address",
          "name": "",
          "type": "address"
        }
      ],
      "name": "allPlayers",
      "outputs": [
        {
          "internalType": "uint256",
          "name": "myscore",
          "type": "uint256"
        },
        {
          "internalType": "bool",
          "name": "isPaid",
          "type": "bool"
        },
        {
          "internalType": "uint256",
          "name": "currentQuestion",
          "type": "uint256"
        }
      ],
      "stateMutability": "view",
      "type": "function",
      "constant": true
    },
    {
      "inputs": [
        {
          "internalType": "uint256",
          "name": "",
          "type": "uint256"
        }
      ],
      "name": "allQuestions",
      "outputs": [
        {
          "internalType": "string",
          "name": "question",
          "type": "string"
        },
        {
          "internalType": "string",
          "name": "correctAns",
          "type": "string"
        }
      ],
      "stateMutability": "view",
      "type": "function",
      "constant": true
    },
    {
      "inputs": [
        {
          "internalType": "uint256",
          "name": "",
          "type": "uint256"
        }
      ],
      "name": "arrWinner",
      "outputs": [
        {
          "internalType": "address",
          "name": "",
          "type": "address"
        }
      ],
      "stateMutability": "view",
      "type": "function",
      "constant": true
    },
    {
      "inputs": [],
      "name": "i_quizCreator",
      "outputs": [
        {
          "internalType": "address",
          "name": "",
          "type": "address"
        }
      ],
      "stateMutability": "view",
      "type": "function",
      "constant": true
    },
    {
      "inputs": [
        {
          "internalType": "uint256",
          "name": "",
          "type": "uint256"
        }
      ],
      "name": "players",
      "outputs": [
        {
          "internalType": "address",
          "name": "",
          "type": "address"
        }
      ],
      "stateMutability": "view",
      "type": "function",
      "constant": true
    },
    {
      "stateMutability": "payable",
      "type": "receive",
      "payable": true
    },
    {
      "inputs": [],
      "name": "getArrayPlayers",
      "outputs": [
        {
          "internalType": "address[]",
          "name": "",
          "type": "address[]"
        }
      ],
      "stateMutability": "view",
      "type": "function",
      "constant": true
    },
    {
      "inputs": [],
      "name": "retrieveAllQuestionAndAnswer",
      "outputs": [
        {
          "internalType": "string[]",
          "name": "",
          "type": "string[]"
        },
        {
          "internalType": "string[]",
          "name": "",
          "type": "string[]"
        }
      ],
      "stateMutability": "nonpayable",
      "type": "function"
    },
    {
      "inputs": [
        {
          "internalType": "string",
          "name": "_question",
          "type": "string"
        },
        {
          "internalType": "string",
          "name": "_correctAns",
          "type": "string"
        }
      ],
      "name": "addQuiz",
      "outputs": [],
      "stateMutability": "nonpayable",
      "type": "function"
    },
    {
      "inputs": [],
      "name": "quizSize",
      "outputs": [
        {
          "internalType": "uint256",
          "name": "",
          "type": "uint256"
        }
      ],
      "stateMutability": "view",
      "type": "function",
      "constant": true
    },
    {
      "inputs": [
        {
          "internalType": "uint256",
          "name": "_num",
          "type": "uint256"
        }
      ],
      "name": "lookQuizs",
      "outputs": [
        {
          "components": [
            {
              "internalType": "string",
              "name": "question",
              "type": "string"
            },
            {
              "internalType": "string",
              "name": "correctAns",
              "type": "string"
            }
          ],
          "internalType": "struct Quizy.QuestionDetail",
          "name": "",
          "type": "tuple"
        }
      ],
      "stateMutability": "view",
      "type": "function",
      "constant": true
    },
    {
      "inputs": [],
      "name": "getQuizCreator",
      "outputs": [
        {
          "internalType": "address",
          "name": "",
          "type": "address"
        }
      ],
      "stateMutability": "view",
      "type": "function",
      "constant": true
    },
    {
      "inputs": [],
      "name": "getMyQuestion",
      "outputs": [
        {
          "internalType": "string",
          "name": "",
          "type": "string"
        }
      ],
      "stateMutability": "view",
      "type": "function",
      "constant": true
    },
    {
      "inputs": [
        {
          "internalType": "string",
          "name": "_ans",
          "type": "string"
        }
      ],
      "name": "doQuiz",
      "outputs": [],
      "stateMutability": "nonpayable",
      "type": "function"
    },
    {
      "inputs": [
        {
          "internalType": "string",
          "name": "a",
          "type": "string"
        },
        {
          "internalType": "string",
          "name": "b",
          "type": "string"
        }
      ],
      "name": "compareStrings",
      "outputs": [
        {
          "internalType": "bool",
          "name": "",
          "type": "bool"
        }
      ],
      "stateMutability": "pure",
      "type": "function",
      "constant": true
    },
    {
      "inputs": [],
      "name": "withdrawV2",
      "outputs": [],
      "stateMutability": "nonpayable",
      "type": "function"
    },
    {
      "inputs": [],
      "name": "joinQuiz",
      "outputs": [],
      "stateMutability": "payable",
      "type": "function",
      "payable": true
    },
    {
      "inputs": [],
      "name": "retrievePlayerSize",
      "outputs": [
        {
          "internalType": "uint256",
          "name": "",
          "type": "uint256"
        }
      ],
      "stateMutability": "view",
      "type": "function",
      "constant": true
    },
    {
      "inputs": [],
      "name": "contractBalance",
      "outputs": [
        {
          "internalType": "uint256",
          "name": "",
          "type": "uint256"
        }
      ],
      "stateMutability": "view",
      "type": "function",
      "constant": true
    },
    {
      "inputs": [
        {
          "internalType": "address",
          "name": "_address",
          "type": "address"
        }
      ],
      "name": "getPlayerScore",
      "outputs": [
        {
          "internalType": "uint256",
          "name": "",
          "type": "uint256"
        },
        {
          "internalType": "uint256",
          "name": "",
          "type": "uint256"
        }
      ],
      "stateMutability": "view",
      "type": "function",
      "constant": true
    },
    {
      "inputs": [],
      "name": "whoHighestScore",
      "outputs": [
        {
          "internalType": "address[]",
          "name": "",
          "type": "address[]"
        }
      ],
      "stateMutability": "nonpayable",
      "type": "function"
    },
    {
      "inputs": [],
      "name": "withdraw",
      "outputs": [],
      "stateMutability": "nonpayable",
      "type": "function"
    }
  ],
  "bytecode": "0x608060405234801561001057600080fd5b5033600360006101000a81548173ffffffffffffffffffffffffffffffffffffffff021916908373ffffffffffffffffffffffffffffffffffffffff160217905550612b75806100616000396000f3fe60806040526004361061012e5760003560e01c8063bbaaa772116100ab578063de4513aa1161006f578063de4513aa146103b9578063dfd9747a146103f8578063e085c53914610435578063ee1a2ea714610473578063f71d96cb146104b0578063fd4e822e146104ed5761013d565b8063bbaaa772146102bc578063bed34bba146102e7578063d295747414610324578063d3e9b68114610362578063dcc2735b1461038e5761013d565b806385880eee116100f257806385880eee146102085780638b7afe2e146102335780639dca2c401461025e5780639ec1148e14610289578063b311b83c146102935761013d565b80632f354ab6146101475780633ccfd60b146101725780635be3a70b1461018957806370fb6e08146101b4578063729b148b146101dd5761013d565b3661013d5761013b610504565b005b610145610504565b005b34801561015357600080fd5b5061015c6107ba565b6040516101699190611d9f565b60405180910390f35b34801561017e57600080fd5b50610187610848565b005b34801561019557600080fd5b5061019e610c0d565b6040516101ab9190611e51565b60405180910390f35b3480156101c057600080fd5b506101db60048036038101906101d69190611fbc565b610d0a565b005b3480156101e957600080fd5b506101f2610ec2565b6040516101ff919061201e565b60405180910390f35b34801561021457600080fd5b5061021d610ece565b60405161022a9190611d9f565b60405180910390f35b34801561023f57600080fd5b50610248611312565b604051610255919061201e565b60405180910390f35b34801561026a57600080fd5b5061027361131a565b6040516102809190612048565b60405180910390f35b610291610504565b005b34801561029f57600080fd5b506102ba60048036038101906102b59190612063565b611340565b005b3480156102c857600080fd5b506102d1611439565b6040516102de919061201e565b60405180910390f35b3480156102f357600080fd5b5061030e60048036038101906103099190612063565b611446565b60405161031b91906120f6565b60405180910390f35b34801561033057600080fd5b5061034b6004803603810190610346919061213d565b61149f565b60405161035992919061216a565b60405180910390f35b34801561036e57600080fd5b506103776115e3565b6040516103859291906122ad565b60405180910390f35b34801561039a57600080fd5b506103a361186e565b6040516103b09190612048565b60405180910390f35b3480156103c557600080fd5b506103e060048036038101906103db9190612310565b611898565b6040516103ef9392919061233d565b60405180910390f35b34801561040457600080fd5b5061041f600480360381019061041a919061213d565b6118cf565b60405161042c9190612048565b60405180910390f35b34801561044157600080fd5b5061045c60048036038101906104579190612310565b61190e565b60405161046a929190612374565b60405180910390f35b34801561047f57600080fd5b5061049a6004803603810190610495919061213d565b6119a0565b6040516104a791906123e1565b60405180910390f35b3480156104bc57600080fd5b506104d760048036038101906104d2919061213d565b611b00565b6040516104e49190612048565b60405180910390f35b3480156104f957600080fd5b50610502611b3f565b005b600360009054906101000a900473ffffffffffffffffffffffffffffffffffffffff1673ffffffffffffffffffffffffffffffffffffffff163373ffffffffffffffffffffffffffffffffffffffff1603610594576040517f08c379a000000000000000000000000000000000000000000000000000000000815260040161058b9061244f565b60405180910390fd5b662386f26fc100003410156105d5576040517f9882883500000000000000000000000000000000000000000000000000000000815260040160405180910390fd5b60011515600160003373ffffffffffffffffffffffffffffffffffffffff1673ffffffffffffffffffffffffffffffffffffffff16815260200190815260200160002060010160009054906101000a900460ff1615150361066b576040517f08c379a0000000000000000000000000000000000000000000000000000000008152600401610662906124bb565b60405180910390fd5b6000600160003373ffffffffffffffffffffffffffffffffffffffff1673ffffffffffffffffffffffffffffffffffffffff1681526020019081526020016000206000018190555060018060003373ffffffffffffffffffffffffffffffffffffffff1673ffffffffffffffffffffffffffffffffffffffff16815260200190815260200160002060010160006101000a81548160ff0219169083151502179055506000600160003373ffffffffffffffffffffffffffffffffffffffff1673ffffffffffffffffffffffffffffffffffffffff168152602001908152602001600020600201819055506000339080600181540180825580915050600190039060005260206000200160009091909190916101000a81548173ffffffffffffffffffffffffffffffffffffffff021916908373ffffffffffffffffffffffffffffffffffffffff160217905550565b6060600080548060200260200160405190810160405280929190818152602001828054801561083e57602002820191906000526020600020905b8160009054906101000a900473ffffffffffffffffffffffffffffffffffffffff1673ffffffffffffffffffffffffffffffffffffffff16815260200190600101908083116107f4575b5050505050905090565b600360009054906101000a900473ffffffffffffffffffffffffffffffffffffffff1673ffffffffffffffffffffffffffffffffffffffff163373ffffffffffffffffffffffffffffffffffffffff16146108cf576040517f93687c0b00000000000000000000000000000000000000000000000000000000815260040160405180910390fd5b60005b600080549050811015610a205760008082815481106108f4576108f36124db565b5b9060005260206000200160009054906101000a900473ffffffffffffffffffffffffffffffffffffffff1690506000600160008373ffffffffffffffffffffffffffffffffffffffff1673ffffffffffffffffffffffffffffffffffffffff168152602001908152602001600020600001819055506000600160008373ffffffffffffffffffffffffffffffffffffffff1673ffffffffffffffffffffffffffffffffffffffff16815260200190815260200160002060010160006101000a81548160ff0219169083151502179055506000600160008373ffffffffffffffffffffffffffffffffffffffff1673ffffffffffffffffffffffffffffffffffffffff16815260200190815260200160002060020181905550508080610a1890612539565b9150506108d2565b50600067ffffffffffffffff811115610a3c57610a3b611e91565b5b604051908082528060200260200182016040528015610a6a5781602001602082028036833780820191505090505b5060009080519060200190610a80929190611bee565b5060005b600680549050811015610baa57600060068281548110610aa757610aa66124db565b5b9060005260206000200160009054906101000a900473ffffffffffffffffffffffffffffffffffffffff1673ffffffffffffffffffffffffffffffffffffffff1682600680549050610af99190612581565b47610b0491906125e4565b604051610b1090612646565b60006040518083038185875af1925050503d8060008114610b4d576040519150601f19603f3d011682016040523d82523d6000602084013e610b52565b606091505b5050905080610b96576040517f08c379a0000000000000000000000000000000000000000000000000000000008152600401610b8d906126a7565b60405180910390fd5b508080610ba290612539565b915050610a84565b50600067ffffffffffffffff811115610bc657610bc5611e91565b5b604051908082528060200260200182016040528015610bf45781602001602082028036833780820191505090505b5060069080519060200190610c0a929190611bee565b50565b60606000600160003373ffffffffffffffffffffffffffffffffffffffff1673ffffffffffffffffffffffffffffffffffffffff16815260200190815260200160002060020154905060028181548110610c6a57610c696124db565b5b90600052602060002090600202016000018054610c86906126f6565b80601f0160208091040260200160405190810160405280929190818152602001828054610cb2906126f6565b8015610cff5780601f10610cd457610100808354040283529160200191610cff565b820191906000526020600020905b815481529060010190602001808311610ce257829003601f168201915b505050505091505090565b6000600160003373ffffffffffffffffffffffffffffffffffffffff1673ffffffffffffffffffffffffffffffffffffffff168152602001908152602001600020600201549050610e0860028281548110610d6857610d676124db565b5b90600052602060002090600202016001018054610d84906126f6565b80601f0160208091040260200160405190810160405280929190818152602001828054610db0906126f6565b8015610dfd5780601f10610dd257610100808354040283529160200191610dfd565b820191906000526020600020905b815481529060010190602001808311610de057829003601f168201915b505050505083611446565b15610e6657600160003373ffffffffffffffffffffffffffffffffffffffff1673ffffffffffffffffffffffffffffffffffffffff1681526020019081526020016000206000016000815480929190610e6090612539565b91905055505b600160003373ffffffffffffffffffffffffffffffffffffffff1673ffffffffffffffffffffffffffffffffffffffff1681526020019081526020016000206002016000815480929190610eb990612539565b91905055505050565b60008080549050905090565b6060600080600081548110610ee657610ee56124db565b5b9060005260206000200160009054906101000a900473ffffffffffffffffffffffffffffffffffffffff16905060005b6001600080549050610f289190612581565b81101561102157600080600183610f3f9190612727565b81548110610f5057610f4f6124db565b5b9060005260206000200160009054906101000a900473ffffffffffffffffffffffffffffffffffffffff169050600160008273ffffffffffffffffffffffffffffffffffffffff1673ffffffffffffffffffffffffffffffffffffffff16815260200190815260200160002060000154600160008573ffffffffffffffffffffffffffffffffffffffff1673ffffffffffffffffffffffffffffffffffffffff16815260200190815260200160002060000154101561100d578092505b50808061101990612539565b915050610f16565b506006819080600181540180825580915050600190039060005260206000200160009091909190916101000a81548173ffffffffffffffffffffffffffffffffffffffff021916908373ffffffffffffffffffffffffffffffffffffffff16021790555060005b60008054905081101561128457600160008083815481106110ac576110ab6124db565b5b9060005260206000200160009054906101000a900473ffffffffffffffffffffffffffffffffffffffff1673ffffffffffffffffffffffffffffffffffffffff1673ffffffffffffffffffffffffffffffffffffffff16815260200190815260200160002060000154600160008473ffffffffffffffffffffffffffffffffffffffff1673ffffffffffffffffffffffffffffffffffffffff16815260200190815260200160002060000154036112715760008181548110611171576111706124db565b5b9060005260206000200160009054906101000a900473ffffffffffffffffffffffffffffffffffffffff1673ffffffffffffffffffffffffffffffffffffffff168273ffffffffffffffffffffffffffffffffffffffff1614611270576006600082815481106111e4576111e36124db565b5b9060005260206000200160009054906101000a900473ffffffffffffffffffffffffffffffffffffffff169080600181540180825580915050600190039060005260206000200160009091909190916101000a81548173ffffffffffffffffffffffffffffffffffffffff021916908373ffffffffffffffffffffffffffffffffffffffff1602179055505b5b808061127c90612539565b915050611088565b50600680548060200260200160405190810160405280929190818152602001828054801561130757602002820191906000526020600020905b8160009054906101000a900473ffffffffffffffffffffffffffffffffffffffff1673ffffffffffffffffffffffffffffffffffffffff16815260200190600101908083116112bd575b505050505091505090565b600047905090565b600360009054906101000a900473ffffffffffffffffffffffffffffffffffffffff1681565b600360009054906101000a900473ffffffffffffffffffffffffffffffffffffffff1673ffffffffffffffffffffffffffffffffffffffff163373ffffffffffffffffffffffffffffffffffffffff16146113c7576040517f93687c0b00000000000000000000000000000000000000000000000000000000815260040160405180910390fd5b60026040518060400160405280848152602001838152509080600181540180825580915050600190039060005260206000209060020201600090919091909150600082015181600001908161141c9190612907565b5060208201518160010190816114329190612907565b5050505050565b6000600280549050905090565b6000816040516020016114599190612a15565b60405160208183030381529060405280519060200120836040516020016114809190612a15565b6040516020818303038152906040528051906020012014905092915050565b600281815481106114af57600080fd5b90600052602060002090600202016000915090508060000180546114d2906126f6565b80601f01602080910402602001604051908101604052809291908181526020018280546114fe906126f6565b801561154b5780601f106115205761010080835404028352916020019161154b565b820191906000526020600020905b81548152906001019060200180831161152e57829003601f168201915b505050505090806001018054611560906126f6565b80601f016020809104026020016040519081016040528092919081815260200182805461158c906126f6565b80156115d95780601f106115ae576101008083540402835291602001916115d9565b820191906000526020600020905b8154815290600101906020018083116115bc57829003601f168201915b5050505050905082565b60608060005b6002805490508110156116bb5760046002828154811061160c5761160b6124db565b5b906000526020600020906002020160000190806001815401808255809150506001900390600052602060002001600090919091909150908161164e9190612a57565b50600560028281548110611665576116646124db565b5b90600052602060002090600202016001019080600181540180825580915050600190039060005260206000200160009091909190915090816116a79190612a57565b5080806116b390612539565b9150506115e9565b506004600581805480602002602001604051908101604052809291908181526020016000905b8282101561178d578382906000526020600020018054611700906126f6565b80601f016020809104026020016040519081016040528092919081815260200182805461172c906126f6565b80156117795780601f1061174e57610100808354040283529160200191611779565b820191906000526020600020905b81548152906001019060200180831161175c57829003601f168201915b5050505050815260200190600101906116e1565b50505050915080805480602002602001604051908101604052809291908181526020016000905b828210156118605783829060005260206000200180546117d3906126f6565b80601f01602080910402602001604051908101604052809291908181526020018280546117ff906126f6565b801561184c5780601f106118215761010080835404028352916020019161184c565b820191906000526020600020905b81548152906001019060200180831161182f57829003601f168201915b5050505050815260200190600101906117b4565b505050509050915091509091565b6000600360009054906101000a900473ffffffffffffffffffffffffffffffffffffffff16905090565b60016020528060005260406000206000915090508060000154908060010160009054906101000a900460ff16908060020154905083565b600681815481106118df57600080fd5b906000526020600020016000915054906101000a900473ffffffffffffffffffffffffffffffffffffffff1681565b600080600160008473ffffffffffffffffffffffffffffffffffffffff1673ffffffffffffffffffffffffffffffffffffffff16815260200190815260200160002060000154600160008573ffffffffffffffffffffffffffffffffffffffff1673ffffffffffffffffffffffffffffffffffffffff1681526020019081526020016000206002015491509150915091565b6119a8611c78565b600282815481106119bc576119bb6124db565b5b90600052602060002090600202016040518060400160405290816000820180546119e5906126f6565b80601f0160208091040260200160405190810160405280929190818152602001828054611a11906126f6565b8015611a5e5780601f10611a3357610100808354040283529160200191611a5e565b820191906000526020600020905b815481529060010190602001808311611a4157829003601f168201915b50505050508152602001600182018054611a77906126f6565b80601f0160208091040260200160405190810160405280929190818152602001828054611aa3906126f6565b8015611af05780601f10611ac557610100808354040283529160200191611af0565b820191906000526020600020905b815481529060010190602001808311611ad357829003601f168201915b5050505050815250509050919050565b60008181548110611b1057600080fd5b906000526020600020016000915054906101000a900473ffffffffffffffffffffffffffffffffffffffff1681565b60003373ffffffffffffffffffffffffffffffffffffffff1647604051611b6590612646565b60006040518083038185875af1925050503d8060008114611ba2576040519150601f19603f3d011682016040523d82523d6000602084013e611ba7565b606091505b5050905080611beb576040517f08c379a0000000000000000000000000000000000000000000000000000000008152600401611be2906126a7565b60405180910390fd5b50565b828054828255906000526020600020908101928215611c67579160200282015b82811115611c665782518260006101000a81548173ffffffffffffffffffffffffffffffffffffffff021916908373ffffffffffffffffffffffffffffffffffffffff16021790555091602001919060010190611c0e565b5b509050611c749190611c92565b5090565b604051806040016040528060608152602001606081525090565b5b80821115611cab576000816000905550600101611c93565b5090565b600081519050919050565b600082825260208201905092915050565b6000819050602082019050919050565b600073ffffffffffffffffffffffffffffffffffffffff82169050919050565b6000611d0682611cdb565b9050919050565b611d1681611cfb565b82525050565b6000611d288383611d0d565b60208301905092915050565b6000602082019050919050565b6000611d4c82611caf565b611d568185611cba565b9350611d6183611ccb565b8060005b83811015611d92578151611d798882611d1c565b9750611d8483611d34565b925050600181019050611d65565b5085935050505092915050565b60006020820190508181036000830152611db98184611d41565b905092915050565b600081519050919050565b600082825260208201905092915050565b60005b83811015611dfb578082015181840152602081019050611de0565b60008484015250505050565b6000601f19601f8301169050919050565b6000611e2382611dc1565b611e2d8185611dcc565b9350611e3d818560208601611ddd565b611e4681611e07565b840191505092915050565b60006020820190508181036000830152611e6b8184611e18565b905092915050565b6000604051905090565b600080fd5b600080fd5b600080fd5b600080fd5b7f4e487b7100000000000000000000000000000000000000000000000000000000600052604160045260246000fd5b611ec982611e07565b810181811067ffffffffffffffff82111715611ee857611ee7611e91565b5b80604052505050565b6000611efb611e73565b9050611f078282611ec0565b919050565b600067ffffffffffffffff821115611f2757611f26611e91565b5b611f3082611e07565b9050602081019050919050565b82818337600083830152505050565b6000611f5f611f5a84611f0c565b611ef1565b905082815260208101848484011115611f7b57611f7a611e8c565b5b611f86848285611f3d565b509392505050565b600082601f830112611fa357611fa2611e87565b5b8135611fb3848260208601611f4c565b91505092915050565b600060208284031215611fd257611fd1611e7d565b5b600082013567ffffffffffffffff811115611ff057611fef611e82565b5b611ffc84828501611f8e565b91505092915050565b6000819050919050565b61201881612005565b82525050565b6000602082019050612033600083018461200f565b92915050565b61204281611cfb565b82525050565b600060208201905061205d6000830184612039565b92915050565b6000806040838503121561207a57612079611e7d565b5b600083013567ffffffffffffffff81111561209857612097611e82565b5b6120a485828601611f8e565b925050602083013567ffffffffffffffff8111156120c5576120c4611e82565b5b6120d185828601611f8e565b9150509250929050565b60008115159050919050565b6120f0816120db565b82525050565b600060208201905061210b60008301846120e7565b92915050565b61211a81612005565b811461212557600080fd5b50565b60008135905061213781612111565b92915050565b60006020828403121561215357612152611e7d565b5b600061216184828501612128565b91505092915050565b600060408201905081810360008301526121848185611e18565b905081810360208301526121988184611e18565b90509392505050565b600081519050919050565b600082825260208201905092915050565b6000819050602082019050919050565b600082825260208201905092915050565b60006121e982611dc1565b6121f381856121cd565b9350612203818560208601611ddd565b61220c81611e07565b840191505092915050565b600061222383836121de565b905092915050565b6000602082019050919050565b6000612243826121a1565b61224d81856121ac565b93508360208202850161225f856121bd565b8060005b8581101561229b578484038952815161227c8582612217565b94506122878361222b565b925060208a01995050600181019050612263565b50829750879550505050505092915050565b600060408201905081810360008301526122c78185612238565b905081810360208301526122db8184612238565b90509392505050565b6122ed81611cfb565b81146122f857600080fd5b50565b60008135905061230a816122e4565b92915050565b60006020828403121561232657612325611e7d565b5b6000612334848285016122fb565b91505092915050565b6000606082019050612352600083018661200f565b61235f60208301856120e7565b61236c604083018461200f565b949350505050565b6000604082019050612389600083018561200f565b612396602083018461200f565b9392505050565b600060408301600083015184820360008601526123ba82826121de565b915050602083015184820360208601526123d482826121de565b9150508091505092915050565b600060208201905081810360008301526123fb818461239d565b905092915050565b7f63726561746f722063616e74206a6f696e000000000000000000000000000000600082015250565b6000612439601183611dcc565b915061244482612403565b602082019050919050565b600060208201905081810360008301526124688161242c565b9050919050565b7f796f7520616c7265616479207265676973740000000000000000000000000000600082015250565b60006124a5601283611dcc565b91506124b08261246f565b602082019050919050565b600060208201905081810360008301526124d481612498565b9050919050565b7f4e487b7100000000000000000000000000000000000000000000000000000000600052603260045260246000fd5b7f4e487b7100000000000000000000000000000000000000000000000000000000600052601160045260246000fd5b600061254482612005565b91507fffffffffffffffffffffffffffffffffffffffffffffffffffffffffffffffff82036125765761257561250a565b5b600182019050919050565b600061258c82612005565b915061259783612005565b92508282039050818111156125af576125ae61250a565b5b92915050565b7f4e487b7100000000000000000000000000000000000000000000000000000000600052601260045260246000fd5b60006125ef82612005565b91506125fa83612005565b92508261260a576126096125b5565b5b828204905092915050565b600081905092915050565b50565b6000612630600083612615565b915061263b82612620565b600082019050919050565b600061265182612623565b9150819050919050565b7f43616c6c206661696c6564000000000000000000000000000000000000000000600082015250565b6000612691600b83611dcc565b915061269c8261265b565b602082019050919050565b600060208201905081810360008301526126c081612684565b9050919050565b7f4e487b7100000000000000000000000000000000000000000000000000000000600052602260045260246000fd5b6000600282049050600182168061270e57607f821691505b602082108103612721576127206126c7565b5b50919050565b600061273282612005565b915061273d83612005565b92508282019050808211156127555761275461250a565b5b92915050565b60008190508160005260206000209050919050565b60006020601f8301049050919050565b600082821b905092915050565b6000600883026127bd7fffffffffffffffffffffffffffffffffffffffffffffffffffffffffffffffff82612780565b6127c78683612780565b95508019841693508086168417925050509392505050565b6000819050919050565b60006128046127ff6127fa84612005565b6127df565b612005565b9050919050565b6000819050919050565b61281e836127e9565b61283261282a8261280b565b84845461278d565b825550505050565b600090565b61284761283a565b612852818484612815565b505050565b5b818110156128765761286b60008261283f565b600181019050612858565b5050565b601f8211156128bb5761288c8161275b565b61289584612770565b810160208510156128a4578190505b6128b86128b085612770565b830182612857565b50505b505050565b600082821c905092915050565b60006128de600019846008026128c0565b1980831691505092915050565b60006128f783836128cd565b9150826002028217905092915050565b61291082611dc1565b67ffffffffffffffff81111561292957612928611e91565b5b61293382546126f6565b61293e82828561287a565b600060209050601f831160018114612971576000841561295f578287015190505b61296985826128eb565b8655506129d1565b601f19841661297f8661275b565b60005b828110156129a757848901518255600182019150602085019450602081019050612982565b868310156129c457848901516129c0601f8916826128cd565b8355505b6001600288020188555050505b505050505050565b600081905092915050565b60006129ef82611dc1565b6129f981856129d9565b9350612a09818560208601611ddd565b80840191505092915050565b6000612a2182846129e4565b915081905092915050565b600081549050612a3b816126f6565b9050919050565b60008190508160005260206000209050919050565b818103612a65575050612b3d565b612a6e82612a2c565b67ffffffffffffffff811115612a8757612a86611e91565b5b612a9182546126f6565b612a9c82828561287a565b6000601f831160018114612acb5760008415612ab9578287015490505b612ac385826128eb565b865550612b36565b601f198416612ad987612a42565b9650612ae48661275b565b60005b82811015612b0c57848901548255600182019150600185019450602081019050612ae7565b86831015612b295784890154612b25601f8916826128cd565b8355505b6001600288020188555050505b5050505050505b56fea264697066735822122086c25a9213ccb597913bbd4d315c9c4a693b3a5ee263167f2c3d2ef94ab99cc264736f6c63430008110033",
  "immutableReferences": {},
  "source": "// SPDX-License-Identifier: MIT\npragma solidity ^0.8.0;\n\n// error NotOwner();\nerror NotWinner();\nerror NotCreator();\nerror BalanceNotEnough();\nerror AlreadyInGame();\nerror CreatorCantJoin();\ncontract Quizy {\n\n    address[] public players; //keep address amount of players.\n    mapping(address => PlayerInfo) public allPlayers; //keep each PlayerInfo in array allPlayers.\n    \n\n    struct PlayerInfo {\n        uint256 myscore;\n        bool isPaid;\n        uint256 currentQuestion; // the current question that they're doing.\n    }\n\n    QuestionDetail[] public allQuestions;\n\n    struct QuestionDetail {\n        string question;\n        string correctAns;\n    }\n\n    // address public /* immutable */ i_owner;\n\n    //Now we are suppose that quizcreator and the winner is the same address.\n    // address public i_winner;\n    address public i_quizCreator;\n    \n\n    constructor() {\n        // i_quizCreator = msg.sender;\n        i_quizCreator = msg.sender;\n\n        \n        // i_winner = msg.sender;\n    }\n\n    \n    \n\n    // modifier onlyWinner {\n    //     //winner is the one that has highest score\n    //     //you can be the winner if the quiz has end (run out of time or everyone submit the quiz)\n    //     if (msg.sender != i_winner) revert NotWinner();\n    //     _;\n    // }\n\n    modifier onlyQuizCreator {\n        if (msg.sender != i_quizCreator) revert NotCreator();\n        _;\n    }\n    \n\n    string[] allQuest;\n    string[] allAns;\n\n    function getArrayPlayers() public view returns(address[] memory) {\n        return players;\n    }\n\n    function retrieveAllQuestionAndAnswer() public returns(string[] memory, string[] memory) {\n        // string[] memory allQuest;\n        // string[] memory allAns;\n        for(uint256 i = 0; i < allQuestions.length; i++) {\n            allQuest.push(allQuestions[i].question);\n            allAns.push(allQuestions[i].correctAns);\n        } \n        return (allQuest, allAns);\n    }\n\n    function addQuiz(string memory _question, string memory _correctAns) public onlyQuizCreator {\n        allQuestions.push(QuestionDetail(_question, _correctAns));\n    }\n\n    function quizSize() public view returns(uint256) {\n        return allQuestions.length;\n    }\n\n    function lookQuizs(uint256 _num) public view returns(QuestionDetail memory) {\n        return allQuestions[_num];\n    }\n\n    function getQuizCreator() public view returns(address) {\n        return i_quizCreator;\n    }\n\n\n    // function letQuizs() public view {\n    //     allPlayers[msg.sender].myscore;\n    // }\n    function getMyQuestion() public view returns(string memory) {\n        uint256 num = allPlayers[msg.sender].currentQuestion;\n        return allQuestions[num].question;\n    }\n\n    function doQuiz(string memory _ans) public {\n        uint256 num = allPlayers[msg.sender].currentQuestion;\n        if(compareStrings(allQuestions[num].correctAns, _ans)) {\n            allPlayers[msg.sender].myscore++;\n        }\n        allPlayers[msg.sender].currentQuestion++; \n    }\n\n    function compareStrings(string memory a, string memory b) public pure returns (bool) {\n        return keccak256(abi.encodePacked(a)) == keccak256(abi.encodePacked(b));\n    }\n\n     function withdrawV2() public  {\n        // for (uint256 playerIndex=0; playerIndex < players.length; playerIndex++){\n        //     address x = players[playerIndex];\n        //     // allPlayers[x].myfund = 0;\n        //     allPlayers[x].myscore = 0;\n        //     allPlayers[x].isPaid = false;\n        //     allPlayers[x].currentQuestion = 0;\n\n        // }\n        // players = new address[](0);\n        // arrWinner = new address[](0);\n\n        \n        // funders = new address[](0);\n        // // transfer\n        // payable(msg.sen der).transfer(address(this).balance);\n        // // send\n        // bool sendSuccess = payable(msg.sender).send(address(this).balance);\n        // require(sendSuccess, \"Send failed\");\n        // call\n\n        //shareReward depend on the number of highest score.\n        // uint shareReward = address(this).balance / arrWinner.length;\n        (bool callSuccess, ) = payable(msg.sender).call{value: address(this).balance}(\"\");\n        require(callSuccess, \"Call failed\");\n       \n        \n    }\n\n    \n    function joinQuiz() public payable { \n        // if (players.length == 0) {\n        //     i_quizCreator = msg.sender;\n        // }\n        require(msg.sender != i_quizCreator, \"creator cant join\");\n        if (msg.value < 1e16) revert BalanceNotEnough();\n        // if (allPlayers[msg.sender].isPaid != true) revert AlreadyInGame();\n        // require(msg.value > 1e15, \"did not enough\");\n        require(allPlayers[msg.sender].isPaid != true, \"you already regist\");\n        allPlayers[msg.sender].myscore = 0;\n        allPlayers[msg.sender].isPaid = true;\n        allPlayers[msg.sender].currentQuestion = 0;\n\n        players.push(msg.sender);\n    }\n\n    function retrievePlayerSize() public view returns(uint256) {\n        return players.length;\n    }\n\n    function contractBalance() public view returns(uint256) {\n        return address(this).balance;\n    }\n\n\n    function getPlayerScore(address _address) public view \n    returns(\n        uint256,\n        uint256\n         ) {\n        return (\n            allPlayers[_address].myscore,\n            allPlayers[_address].currentQuestion\n        );\n    }\n\n  \n\n    address[] public arrWinner;\n    function whoHighestScore() public returns(address[] memory){\n\n        address current = players[0];\n        for (uint256 i = 0; i < players.length-1; i++) {\n                \n                // current = players[i];\n                address next = players[i+1];\n\n                if(allPlayers[current].myscore < allPlayers[next].myscore) {\n                    // highest = allPlayers[x].myscore\n                    current = next;\n                }\n        }\n        arrWinner.push(current);\n\n        for(uint256 j = 0; j < players.length; j++) {\n            if(allPlayers[current].myscore == allPlayers[players[j]].myscore) {\n                if(current != players[j]) {\n                    arrWinner.push(players[j]);\n                }\n            }\n        }\n        // return current;\n        return arrWinner;\n\n    }\n\n    function withdraw() public onlyQuizCreator {\n        for (uint256 playerIndex=0; playerIndex < players.length; playerIndex++){\n            address x = players[playerIndex];\n            // allPlayers[x].myfund = 0;\n            allPlayers[x].myscore = 0;\n            allPlayers[x].isPaid = false;\n            allPlayers[x].currentQuestion = 0;\n\n        }\n        players = new address[](0);\n        \n        \n        \n        // funders = new address[](0);\n        // // transfer\n        // payable(msg.sen der).transfer(address(this).balance);\n        // // send\n        // bool sendSuccess = payable(msg.sender).send(address(this).balance);\n        // require(sendSuccess, \"Send failed\");\n        // call\n\n        //shareReward depend on the number of highest score.\n        // uint shareReward = address(this).balance / arrWinner.length;\n        for(uint256 i = 0; i < arrWinner.length; i++) {\n            (bool callSuccess, ) = payable(arrWinner[i]).call{value: address(this).balance/(arrWinner.length-i)}(\"\");\n            require(callSuccess, \"Call failed\");\n        } \n        \n\n        arrWinner = new address[](0);\n    }\n\n\n\n    fallback() external payable {\n        joinQuiz();\n    }\n\n    receive() external payable {\n        joinQuiz();\n    }\n\n    \n}",
  "sourcePath": "/Users/krittametchuwongworaphinit/Desktop/Blockchain Termproject/FirstDapp/quiz/contracts/Quizy.sol",
  "compiler": {
    "name": "solc",
    "version": "0.8.17+commit.8df45f5f.Emscripten.clang"
  },
  "schemaVersion": "3.4.10",
  "updatedAt": "2022-10-09T13:57:16.254Z",
  "networkType": "ethereum",
  "devdoc": {
    "kind": "dev",
    "methods": {},
    "version": 1
  },
  "userdoc": {
    "kind": "user",
    "methods": {},
    "version": 1
  }
}