{
  "contractName": "QuizFund",
  "abi": [
    {
      "inputs": [],
      "stateMutability": "nonpayable",
      "type": "constructor"
    },
    {
      "inputs": [],
      "name": "BalanceNotEnough",
      "type": "error"
    },
    {
      "inputs": [],
      "name": "NotCreator",
      "type": "error"
    },
    {
      "stateMutability": "payable",
      "type": "fallback"
    },
    {
      "inputs": [
        {
          "internalType": "address",
          "name": "",
          "type": "address"
        }
      ],
      "name": "allPlayers",
      "outputs": [
        {
          "internalType": "uint256",
          "name": "myscore",
          "type": "uint256"
        },
        {
          "internalType": "bool",
          "name": "isPaid",
          "type": "bool"
        },
        {
          "internalType": "uint256",
          "name": "currentQuestion",
          "type": "uint256"
        }
      ],
      "stateMutability": "view",
      "type": "function"
    },
    {
      "inputs": [
        {
          "internalType": "uint256",
          "name": "",
          "type": "uint256"
        }
      ],
      "name": "allQuestions",
      "outputs": [
        {
          "internalType": "string",
          "name": "question",
          "type": "string"
        },
        {
          "internalType": "string",
          "name": "correctAns",
          "type": "string"
        }
      ],
      "stateMutability": "view",
      "type": "function"
    },
    {
      "inputs": [
        {
          "internalType": "uint256",
          "name": "",
          "type": "uint256"
        }
      ],
      "name": "arrWinner",
      "outputs": [
        {
          "internalType": "address",
          "name": "",
          "type": "address"
        }
      ],
      "stateMutability": "view",
      "type": "function"
    },
    {
      "inputs": [],
      "name": "i_quizCreator",
      "outputs": [
        {
          "internalType": "address",
          "name": "",
          "type": "address"
        }
      ],
      "stateMutability": "view",
      "type": "function"
    },
    {
      "inputs": [
        {
          "internalType": "uint256",
          "name": "",
          "type": "uint256"
        }
      ],
      "name": "players",
      "outputs": [
        {
          "internalType": "address",
          "name": "",
          "type": "address"
        }
      ],
      "stateMutability": "view",
      "type": "function"
    },
    {
      "stateMutability": "payable",
      "type": "receive"
    },
    {
      "inputs": [
        {
          "internalType": "string",
          "name": "_question",
          "type": "string"
        },
        {
          "internalType": "string",
          "name": "_correctAns",
          "type": "string"
        }
      ],
      "name": "addQuiz",
      "outputs": [],
      "stateMutability": "nonpayable",
      "type": "function"
    },
    {
      "inputs": [],
      "name": "quizSize",
      "outputs": [
        {
          "internalType": "uint256",
          "name": "",
          "type": "uint256"
        }
      ],
      "stateMutability": "view",
      "type": "function"
    },
    {
      "inputs": [
        {
          "internalType": "uint256",
          "name": "_num",
          "type": "uint256"
        }
      ],
      "name": "lookQuizs",
      "outputs": [
        {
          "components": [
            {
              "internalType": "string",
              "name": "question",
              "type": "string"
            },
            {
              "internalType": "string",
              "name": "correctAns",
              "type": "string"
            }
          ],
          "internalType": "struct QuizFund.QuestionDetail",
          "name": "",
          "type": "tuple"
        }
      ],
      "stateMutability": "view",
      "type": "function"
    },
    {
      "inputs": [],
      "name": "getMyQuestion",
      "outputs": [
        {
          "internalType": "string",
          "name": "",
          "type": "string"
        }
      ],
      "stateMutability": "view",
      "type": "function"
    },
    {
      "inputs": [
        {
          "internalType": "string",
          "name": "_ans",
          "type": "string"
        }
      ],
      "name": "doQuiz",
      "outputs": [],
      "stateMutability": "nonpayable",
      "type": "function"
    },
    {
      "inputs": [
        {
          "internalType": "string",
          "name": "a",
          "type": "string"
        },
        {
          "internalType": "string",
          "name": "b",
          "type": "string"
        }
      ],
      "name": "compareStrings",
      "outputs": [
        {
          "internalType": "bool",
          "name": "",
          "type": "bool"
        }
      ],
      "stateMutability": "pure",
      "type": "function"
    },
    {
      "inputs": [],
      "name": "joinQuiz",
      "outputs": [],
      "stateMutability": "payable",
      "type": "function"
    },
    {
      "inputs": [],
      "name": "retrievePlayerSize",
      "outputs": [
        {
          "internalType": "uint256",
          "name": "",
          "type": "uint256"
        }
      ],
      "stateMutability": "view",
      "type": "function"
    },
    {
      "inputs": [],
      "name": "contractBalance",
      "outputs": [
        {
          "internalType": "uint256",
          "name": "",
          "type": "uint256"
        }
      ],
      "stateMutability": "view",
      "type": "function"
    },
    {
      "inputs": [
        {
          "internalType": "address",
          "name": "_address",
          "type": "address"
        }
      ],
      "name": "getPlayerScore",
      "outputs": [
        {
          "internalType": "uint256",
          "name": "",
          "type": "uint256"
        },
        {
          "internalType": "uint256",
          "name": "",
          "type": "uint256"
        }
      ],
      "stateMutability": "view",
      "type": "function"
    },
    {
      "inputs": [],
      "name": "whoHighestScore",
      "outputs": [
        {
          "internalType": "address[]",
          "name": "",
          "type": "address[]"
        }
      ],
      "stateMutability": "nonpayable",
      "type": "function"
    },
    {
      "inputs": [],
      "name": "withdraw",
      "outputs": [],
      "stateMutability": "nonpayable",
      "type": "function"
    }
  ],
  "bytecode": "0x608060405234801561001057600080fd5b5033600360006101000a81548173ffffffffffffffffffffffffffffffffffffffff021916908373ffffffffffffffffffffffffffffffffffffffff1602179055506124b2806100616000396000f3fe6080604052600436106101025760003560e01c8063b311b83c11610095578063de4513aa11610064578063de4513aa1461030b578063dfd9747a1461034a578063e085c53914610387578063ee1a2ea7146103c5578063f71d96cb1461040257610111565b8063b311b83c1461023c578063bbaaa77214610265578063bed34bba14610290578063d2957474146102cd57610111565b806385880eee116100d157806385880eee146101b15780638b7afe2e146101dc5780639dca2c40146102075780639ec1148e1461023257610111565b80633ccfd60b1461011b5780635be3a70b1461013257806370fb6e081461015d578063729b148b1461018657610111565b366101115761010f61043f565b005b61011961043f565b005b34801561012757600080fd5b506101306106f5565b005b34801561013e57600080fd5b50610147610aba565b6040516101549190611888565b60405180910390f35b34801561016957600080fd5b50610184600480360381019061017f91906119f3565b610bb7565b005b34801561019257600080fd5b5061019b610d6f565b6040516101a89190611a55565b60405180910390f35b3480156101bd57600080fd5b506101c6610d7b565b6040516101d39190611b60565b60405180910390f35b3480156101e857600080fd5b506101f16111bf565b6040516101fe9190611a55565b60405180910390f35b34801561021357600080fd5b5061021c6111c7565b6040516102299190611b91565b60405180910390f35b61023a61043f565b005b34801561024857600080fd5b50610263600480360381019061025e9190611bac565b6111ed565b005b34801561027157600080fd5b5061027a6112e6565b6040516102879190611a55565b60405180910390f35b34801561029c57600080fd5b506102b760048036038101906102b29190611bac565b6112f3565b6040516102c49190611c3f565b60405180910390f35b3480156102d957600080fd5b506102f460048036038101906102ef9190611c86565b61134c565b604051610302929190611cb3565b60405180910390f35b34801561031757600080fd5b50610332600480360381019061032d9190611d16565b611490565b60405161034193929190611d43565b60405180910390f35b34801561035657600080fd5b50610371600480360381019061036c9190611c86565b6114c7565b60405161037e9190611b91565b60405180910390f35b34801561039357600080fd5b506103ae60048036038101906103a99190611d16565b611506565b6040516103bc929190611d7a565b60405180910390f35b3480156103d157600080fd5b506103ec60048036038101906103e79190611c86565b611598565b6040516103f99190611e31565b60405180910390f35b34801561040e57600080fd5b5061042960048036038101906104249190611c86565b6116f8565b6040516104369190611b91565b60405180910390f35b600360009054906101000a900473ffffffffffffffffffffffffffffffffffffffff1673ffffffffffffffffffffffffffffffffffffffff163373ffffffffffffffffffffffffffffffffffffffff16036104cf576040517f08c379a00000000000000000000000000000000000000000000000000000000081526004016104c690611e9f565b60405180910390fd5b662386f26fc10000341015610510576040517f9882883500000000000000000000000000000000000000000000000000000000815260040160405180910390fd5b60011515600160003373ffffffffffffffffffffffffffffffffffffffff1673ffffffffffffffffffffffffffffffffffffffff16815260200190815260200160002060010160009054906101000a900460ff161515036105a6576040517f08c379a000000000000000000000000000000000000000000000000000000000815260040161059d90611f0b565b60405180910390fd5b6000600160003373ffffffffffffffffffffffffffffffffffffffff1673ffffffffffffffffffffffffffffffffffffffff1681526020019081526020016000206000018190555060018060003373ffffffffffffffffffffffffffffffffffffffff1673ffffffffffffffffffffffffffffffffffffffff16815260200190815260200160002060010160006101000a81548160ff0219169083151502179055506000600160003373ffffffffffffffffffffffffffffffffffffffff1673ffffffffffffffffffffffffffffffffffffffff168152602001908152602001600020600201819055506000339080600181540180825580915050600190039060005260206000200160009091909190916101000a81548173ffffffffffffffffffffffffffffffffffffffff021916908373ffffffffffffffffffffffffffffffffffffffff160217905550565b600360009054906101000a900473ffffffffffffffffffffffffffffffffffffffff1673ffffffffffffffffffffffffffffffffffffffff163373ffffffffffffffffffffffffffffffffffffffff161461077c576040517f93687c0b00000000000000000000000000000000000000000000000000000000815260040160405180910390fd5b60005b6000805490508110156108cd5760008082815481106107a1576107a0611f2b565b5b9060005260206000200160009054906101000a900473ffffffffffffffffffffffffffffffffffffffff1690506000600160008373ffffffffffffffffffffffffffffffffffffffff1673ffffffffffffffffffffffffffffffffffffffff168152602001908152602001600020600001819055506000600160008373ffffffffffffffffffffffffffffffffffffffff1673ffffffffffffffffffffffffffffffffffffffff16815260200190815260200160002060010160006101000a81548160ff0219169083151502179055506000600160008373ffffffffffffffffffffffffffffffffffffffff1673ffffffffffffffffffffffffffffffffffffffff168152602001908152602001600020600201819055505080806108c590611f89565b91505061077f565b50600067ffffffffffffffff8111156108e9576108e86118c8565b5b6040519080825280602002602001820160405280156109175781602001602082028036833780820191505090505b506000908051906020019061092d929190611737565b5060005b600480549050811015610a575760006004828154811061095457610953611f2b565b5b9060005260206000200160009054906101000a900473ffffffffffffffffffffffffffffffffffffffff1673ffffffffffffffffffffffffffffffffffffffff16826004805490506109a69190611fd1565b476109b19190612034565b6040516109bd90612096565b60006040518083038185875af1925050503d80600081146109fa576040519150601f19603f3d011682016040523d82523d6000602084013e6109ff565b606091505b5050905080610a43576040517f08c379a0000000000000000000000000000000000000000000000000000000008152600401610a3a906120f7565b60405180910390fd5b508080610a4f90611f89565b915050610931565b50600067ffffffffffffffff811115610a7357610a726118c8565b5b604051908082528060200260200182016040528015610aa15781602001602082028036833780820191505090505b5060049080519060200190610ab7929190611737565b50565b60606000600160003373ffffffffffffffffffffffffffffffffffffffff1673ffffffffffffffffffffffffffffffffffffffff16815260200190815260200160002060020154905060028181548110610b1757610b16611f2b565b5b90600052602060002090600202016000018054610b3390612146565b80601f0160208091040260200160405190810160405280929190818152602001828054610b5f90612146565b8015610bac5780601f10610b8157610100808354040283529160200191610bac565b820191906000526020600020905b815481529060010190602001808311610b8f57829003601f168201915b505050505091505090565b6000600160003373ffffffffffffffffffffffffffffffffffffffff1673ffffffffffffffffffffffffffffffffffffffff168152602001908152602001600020600201549050610cb560028281548110610c1557610c14611f2b565b5b90600052602060002090600202016001018054610c3190612146565b80601f0160208091040260200160405190810160405280929190818152602001828054610c5d90612146565b8015610caa5780601f10610c7f57610100808354040283529160200191610caa565b820191906000526020600020905b815481529060010190602001808311610c8d57829003601f168201915b5050505050836112f3565b15610d1357600160003373ffffffffffffffffffffffffffffffffffffffff1673ffffffffffffffffffffffffffffffffffffffff1681526020019081526020016000206000016000815480929190610d0d90611f89565b91905055505b600160003373ffffffffffffffffffffffffffffffffffffffff1673ffffffffffffffffffffffffffffffffffffffff1681526020019081526020016000206002016000815480929190610d6690611f89565b91905055505050565b60008080549050905090565b6060600080600081548110610d9357610d92611f2b565b5b9060005260206000200160009054906101000a900473ffffffffffffffffffffffffffffffffffffffff16905060005b6001600080549050610dd59190611fd1565b811015610ece57600080600183610dec9190612177565b81548110610dfd57610dfc611f2b565b5b9060005260206000200160009054906101000a900473ffffffffffffffffffffffffffffffffffffffff169050600160008273ffffffffffffffffffffffffffffffffffffffff1673ffffffffffffffffffffffffffffffffffffffff16815260200190815260200160002060000154600160008573ffffffffffffffffffffffffffffffffffffffff1673ffffffffffffffffffffffffffffffffffffffff168152602001908152602001600020600001541015610eba578092505b508080610ec690611f89565b915050610dc3565b506004819080600181540180825580915050600190039060005260206000200160009091909190916101000a81548173ffffffffffffffffffffffffffffffffffffffff021916908373ffffffffffffffffffffffffffffffffffffffff16021790555060005b6000805490508110156111315760016000808381548110610f5957610f58611f2b565b5b9060005260206000200160009054906101000a900473ffffffffffffffffffffffffffffffffffffffff1673ffffffffffffffffffffffffffffffffffffffff1673ffffffffffffffffffffffffffffffffffffffff16815260200190815260200160002060000154600160008473ffffffffffffffffffffffffffffffffffffffff1673ffffffffffffffffffffffffffffffffffffffff168152602001908152602001600020600001540361111e576000818154811061101e5761101d611f2b565b5b9060005260206000200160009054906101000a900473ffffffffffffffffffffffffffffffffffffffff1673ffffffffffffffffffffffffffffffffffffffff168273ffffffffffffffffffffffffffffffffffffffff161461111d5760046000828154811061109157611090611f2b565b5b9060005260206000200160009054906101000a900473ffffffffffffffffffffffffffffffffffffffff169080600181540180825580915050600190039060005260206000200160009091909190916101000a81548173ffffffffffffffffffffffffffffffffffffffff021916908373ffffffffffffffffffffffffffffffffffffffff1602179055505b5b808061112990611f89565b915050610f35565b5060048054806020026020016040519081016040528092919081815260200182805480156111b457602002820191906000526020600020905b8160009054906101000a900473ffffffffffffffffffffffffffffffffffffffff1673ffffffffffffffffffffffffffffffffffffffff168152602001906001019080831161116a575b505050505091505090565b600047905090565b600360009054906101000a900473ffffffffffffffffffffffffffffffffffffffff1681565b600360009054906101000a900473ffffffffffffffffffffffffffffffffffffffff1673ffffffffffffffffffffffffffffffffffffffff163373ffffffffffffffffffffffffffffffffffffffff1614611274576040517f93687c0b00000000000000000000000000000000000000000000000000000000815260040160405180910390fd5b6002604051806040016040528084815260200183815250908060018154018082558091505060019003906000526020600020906002020160009091909190915060008201518160000190816112c99190612357565b5060208201518160010190816112df9190612357565b5050505050565b6000600280549050905090565b6000816040516020016113069190612465565b604051602081830303815290604052805190602001208360405160200161132d9190612465565b6040516020818303038152906040528051906020012014905092915050565b6002818154811061135c57600080fd5b906000526020600020906002020160009150905080600001805461137f90612146565b80601f01602080910402602001604051908101604052809291908181526020018280546113ab90612146565b80156113f85780601f106113cd576101008083540402835291602001916113f8565b820191906000526020600020905b8154815290600101906020018083116113db57829003601f168201915b50505050509080600101805461140d90612146565b80601f016020809104026020016040519081016040528092919081815260200182805461143990612146565b80156114865780601f1061145b57610100808354040283529160200191611486565b820191906000526020600020905b81548152906001019060200180831161146957829003601f168201915b5050505050905082565b60016020528060005260406000206000915090508060000154908060010160009054906101000a900460ff16908060020154905083565b600481815481106114d757600080fd5b906000526020600020016000915054906101000a900473ffffffffffffffffffffffffffffffffffffffff1681565b600080600160008473ffffffffffffffffffffffffffffffffffffffff1673ffffffffffffffffffffffffffffffffffffffff16815260200190815260200160002060000154600160008573ffffffffffffffffffffffffffffffffffffffff1673ffffffffffffffffffffffffffffffffffffffff1681526020019081526020016000206002015491509150915091565b6115a06117c1565b600282815481106115b4576115b3611f2b565b5b90600052602060002090600202016040518060400160405290816000820180546115dd90612146565b80601f016020809104026020016040519081016040528092919081815260200182805461160990612146565b80156116565780601f1061162b57610100808354040283529160200191611656565b820191906000526020600020905b81548152906001019060200180831161163957829003601f168201915b5050505050815260200160018201805461166f90612146565b80601f016020809104026020016040519081016040528092919081815260200182805461169b90612146565b80156116e85780601f106116bd576101008083540402835291602001916116e8565b820191906000526020600020905b8154815290600101906020018083116116cb57829003601f168201915b5050505050815250509050919050565b6000818154811061170857600080fd5b906000526020600020016000915054906101000a900473ffffffffffffffffffffffffffffffffffffffff1681565b8280548282559060005260206000209081019282156117b0579160200282015b828111156117af5782518260006101000a81548173ffffffffffffffffffffffffffffffffffffffff021916908373ffffffffffffffffffffffffffffffffffffffff16021790555091602001919060010190611757565b5b5090506117bd91906117db565b5090565b604051806040016040528060608152602001606081525090565b5b808211156117f45760008160009055506001016117dc565b5090565b600081519050919050565b600082825260208201905092915050565b60005b83811015611832578082015181840152602081019050611817565b60008484015250505050565b6000601f19601f8301169050919050565b600061185a826117f8565b6118648185611803565b9350611874818560208601611814565b61187d8161183e565b840191505092915050565b600060208201905081810360008301526118a2818461184f565b905092915050565b6000604051905090565b600080fd5b600080fd5b600080fd5b600080fd5b7f4e487b7100000000000000000000000000000000000000000000000000000000600052604160045260246000fd5b6119008261183e565b810181811067ffffffffffffffff8211171561191f5761191e6118c8565b5b80604052505050565b60006119326118aa565b905061193e82826118f7565b919050565b600067ffffffffffffffff82111561195e5761195d6118c8565b5b6119678261183e565b9050602081019050919050565b82818337600083830152505050565b600061199661199184611943565b611928565b9050828152602081018484840111156119b2576119b16118c3565b5b6119bd848285611974565b509392505050565b600082601f8301126119da576119d96118be565b5b81356119ea848260208601611983565b91505092915050565b600060208284031215611a0957611a086118b4565b5b600082013567ffffffffffffffff811115611a2757611a266118b9565b5b611a33848285016119c5565b91505092915050565b6000819050919050565b611a4f81611a3c565b82525050565b6000602082019050611a6a6000830184611a46565b92915050565b600081519050919050565b600082825260208201905092915050565b6000819050602082019050919050565b600073ffffffffffffffffffffffffffffffffffffffff82169050919050565b6000611ac782611a9c565b9050919050565b611ad781611abc565b82525050565b6000611ae98383611ace565b60208301905092915050565b6000602082019050919050565b6000611b0d82611a70565b611b178185611a7b565b9350611b2283611a8c565b8060005b83811015611b53578151611b3a8882611add565b9750611b4583611af5565b925050600181019050611b26565b5085935050505092915050565b60006020820190508181036000830152611b7a8184611b02565b905092915050565b611b8b81611abc565b82525050565b6000602082019050611ba66000830184611b82565b92915050565b60008060408385031215611bc357611bc26118b4565b5b600083013567ffffffffffffffff811115611be157611be06118b9565b5b611bed858286016119c5565b925050602083013567ffffffffffffffff811115611c0e57611c0d6118b9565b5b611c1a858286016119c5565b9150509250929050565b60008115159050919050565b611c3981611c24565b82525050565b6000602082019050611c546000830184611c30565b92915050565b611c6381611a3c565b8114611c6e57600080fd5b50565b600081359050611c8081611c5a565b92915050565b600060208284031215611c9c57611c9b6118b4565b5b6000611caa84828501611c71565b91505092915050565b60006040820190508181036000830152611ccd818561184f565b90508181036020830152611ce1818461184f565b90509392505050565b611cf381611abc565b8114611cfe57600080fd5b50565b600081359050611d1081611cea565b92915050565b600060208284031215611d2c57611d2b6118b4565b5b6000611d3a84828501611d01565b91505092915050565b6000606082019050611d586000830186611a46565b611d656020830185611c30565b611d726040830184611a46565b949350505050565b6000604082019050611d8f6000830185611a46565b611d9c6020830184611a46565b9392505050565b600082825260208201905092915050565b6000611dbf826117f8565b611dc98185611da3565b9350611dd9818560208601611814565b611de28161183e565b840191505092915050565b60006040830160008301518482036000860152611e0a8282611db4565b91505060208301518482036020860152611e248282611db4565b9150508091505092915050565b60006020820190508181036000830152611e4b8184611ded565b905092915050565b7f63726561746f722063616e74206a6f696e000000000000000000000000000000600082015250565b6000611e89601183611803565b9150611e9482611e53565b602082019050919050565b60006020820190508181036000830152611eb881611e7c565b9050919050565b7f796f7520616c7265616479207265676973740000000000000000000000000000600082015250565b6000611ef5601283611803565b9150611f0082611ebf565b602082019050919050565b60006020820190508181036000830152611f2481611ee8565b9050919050565b7f4e487b7100000000000000000000000000000000000000000000000000000000600052603260045260246000fd5b7f4e487b7100000000000000000000000000000000000000000000000000000000600052601160045260246000fd5b6000611f9482611a3c565b91507fffffffffffffffffffffffffffffffffffffffffffffffffffffffffffffffff8203611fc657611fc5611f5a565b5b600182019050919050565b6000611fdc82611a3c565b9150611fe783611a3c565b9250828203905081811115611fff57611ffe611f5a565b5b92915050565b7f4e487b7100000000000000000000000000000000000000000000000000000000600052601260045260246000fd5b600061203f82611a3c565b915061204a83611a3c565b92508261205a57612059612005565b5b828204905092915050565b600081905092915050565b50565b6000612080600083612065565b915061208b82612070565b600082019050919050565b60006120a182612073565b9150819050919050565b7f43616c6c206661696c6564000000000000000000000000000000000000000000600082015250565b60006120e1600b83611803565b91506120ec826120ab565b602082019050919050565b60006020820190508181036000830152612110816120d4565b9050919050565b7f4e487b7100000000000000000000000000000000000000000000000000000000600052602260045260246000fd5b6000600282049050600182168061215e57607f821691505b60208210810361217157612170612117565b5b50919050565b600061218282611a3c565b915061218d83611a3c565b92508282019050808211156121a5576121a4611f5a565b5b92915050565b60008190508160005260206000209050919050565b60006020601f8301049050919050565b600082821b905092915050565b60006008830261220d7fffffffffffffffffffffffffffffffffffffffffffffffffffffffffffffffff826121d0565b61221786836121d0565b95508019841693508086168417925050509392505050565b6000819050919050565b600061225461224f61224a84611a3c565b61222f565b611a3c565b9050919050565b6000819050919050565b61226e83612239565b61228261227a8261225b565b8484546121dd565b825550505050565b600090565b61229761228a565b6122a2818484612265565b505050565b5b818110156122c6576122bb60008261228f565b6001810190506122a8565b5050565b601f82111561230b576122dc816121ab565b6122e5846121c0565b810160208510156122f4578190505b612308612300856121c0565b8301826122a7565b50505b505050565b600082821c905092915050565b600061232e60001984600802612310565b1980831691505092915050565b6000612347838361231d565b9150826002028217905092915050565b612360826117f8565b67ffffffffffffffff811115612379576123786118c8565b5b6123838254612146565b61238e8282856122ca565b600060209050601f8311600181146123c157600084156123af578287015190505b6123b9858261233b565b865550612421565b601f1984166123cf866121ab565b60005b828110156123f7578489015182556001820191506020850194506020810190506123d2565b868310156124145784890151612410601f89168261231d565b8355505b6001600288020188555050505b505050505050565b600081905092915050565b600061243f826117f8565b6124498185612429565b9350612459818560208601611814565b80840191505092915050565b60006124718284612434565b91508190509291505056fea26469706673582212202811232079351f07608c561254c5f0da33b03d593397de4beeb2d867c67cdb2164736f6c63430008110033",
  "immutableReferences": {},
  "source": "// SPDX-License-Identifier: MIT\npragma solidity ^0.8.0;\n\n// error NotOwner();\nerror NotWinner();\nerror NotCreator();\nerror BalanceNotEnough();\nerror AlreadyInGame();\nerror CreatorCantJoin();\ncontract QuizFund {\n\n    address[] public players; //keep address amount of players.\n    mapping(address => PlayerInfo) public allPlayers; //keep each PlayerInfo in array allPlayers.\n    \n\n    struct PlayerInfo {\n        uint256 myscore;\n        bool isPaid;\n        uint256 currentQuestion; // the current question that they're doing.\n    }\n\n    QuestionDetail[] public allQuestions;\n\n    struct QuestionDetail {\n        string question;\n        string correctAns;\n    }\n\n    // address public /* immutable */ i_owner;\n\n    //Now we are suppose that quizcreator and the winner is the same address.\n    // address public i_winner;\n    address public i_quizCreator;\n    \n\n    constructor() {\n        i_quizCreator = msg.sender;\n        // i_winner = msg.sender;\n    }\n    \n\n    // modifier onlyWinner {\n    //     //winner is the one that has highest score\n    //     //you can be the winner if the quiz has end (run out of time or everyone submit the quiz)\n    //     if (msg.sender != i_winner) revert NotWinner();\n    //     _;\n    // }\n\n    modifier onlyQuizCreator {\n        if (msg.sender != i_quizCreator) revert NotCreator();\n        _;\n    }\n\n    function addQuiz(string memory _question, string memory _correctAns) public onlyQuizCreator {\n        allQuestions.push(QuestionDetail(_question, _correctAns));\n    }\n\n    function quizSize() public view returns(uint256) {\n        return allQuestions.length;\n    }\n\n    function lookQuizs(uint256 _num) public view returns(QuestionDetail memory) {\n        return allQuestions[_num];\n    }\n\n    // function letQuizs() public view {\n    //     allPlayers[msg.sender].myscore;\n    // }\n    function getMyQuestion() public view returns(string memory) {\n        uint256 num = allPlayers[msg.sender].currentQuestion;\n        return allQuestions[num].question;\n    }\n\n    function doQuiz(string memory _ans) public {\n        uint256 num = allPlayers[msg.sender].currentQuestion;\n        if(compareStrings(allQuestions[num].correctAns, _ans)) {\n            allPlayers[msg.sender].myscore++;\n        }\n        allPlayers[msg.sender].currentQuestion++; \n    }\n\n    function compareStrings(string memory a, string memory b) public pure returns (bool) {\n        return keccak256(abi.encodePacked(a)) == keccak256(abi.encodePacked(b));\n    }\n\n    \n    function joinQuiz() public payable { \n        // if (players.length == 0) {\n        //     i_quizCreator = msg.sender;\n        // }\n        require(msg.sender != i_quizCreator, \"creator cant join\");\n        if (msg.value < 1e16) revert BalanceNotEnough();\n        // if (allPlayers[msg.sender].isPaid != true) revert AlreadyInGame();\n        // require(msg.value > 1e15, \"did not enough\");\n        require(allPlayers[msg.sender].isPaid != true, \"you already regist\");\n        allPlayers[msg.sender].myscore = 0;\n        allPlayers[msg.sender].isPaid = true;\n        allPlayers[msg.sender].currentQuestion = 0;\n\n        players.push(msg.sender);\n    }\n\n    function retrievePlayerSize() public view returns(uint256) {\n        return players.length;\n    }\n\n    function contractBalance() public view returns(uint256) {\n        return address(this).balance;\n    }\n\n\n    function getPlayerScore(address _address) public view \n    returns(\n        uint256,\n        uint256\n         ) {\n        return (\n            allPlayers[_address].myscore,\n            allPlayers[_address].currentQuestion\n        );\n    }\n\n  \n\n    address[] public arrWinner;\n    function whoHighestScore() public returns(address[] memory){\n\n        address current = players[0];\n        for (uint256 i = 0; i < players.length-1; i++) {\n                \n                // current = players[i];\n                address next = players[i+1];\n\n                if(allPlayers[current].myscore < allPlayers[next].myscore) {\n                    // highest = allPlayers[x].myscore\n                    current = next;\n                }\n        }\n        arrWinner.push(current);\n\n        for(uint256 j = 0; j < players.length; j++) {\n            if(allPlayers[current].myscore == allPlayers[players[j]].myscore) {\n                if(current != players[j]) {\n                    arrWinner.push(players[j]);\n                }\n            }\n        }\n        // return current;\n        return arrWinner;\n\n    }\n\n    function withdraw() public onlyQuizCreator {\n        for (uint256 playerIndex=0; playerIndex < players.length; playerIndex++){\n            address x = players[playerIndex];\n            // allPlayers[x].myfund = 0;\n            allPlayers[x].myscore = 0;\n            allPlayers[x].isPaid = false;\n            allPlayers[x].currentQuestion = 0;\n\n        }\n        players = new address[](0);\n        \n        \n        // funders = new address[](0);\n        // // transfer\n        // payable(msg.sen der).transfer(address(this).balance);\n        // // send\n        // bool sendSuccess = payable(msg.sender).send(address(this).balance);\n        // require(sendSuccess, \"Send failed\");\n        // call\n\n        //shareReward depend on the number of highest score.\n        // uint shareReward = address(this).balance / arrWinner.length;\n        for(uint256 i = 0; i < arrWinner.length; i++) {\n            (bool callSuccess, ) = payable(arrWinner[i]).call{value: address(this).balance/(arrWinner.length-i)}(\"\");\n            require(callSuccess, \"Call failed\");\n        } \n        \n\n        arrWinner = new address[](0);\n    }\n\n\n\n    fallback() external payable {\n        joinQuiz();\n    }\n\n    receive() external payable {\n        joinQuiz();\n    }\n\n    \n}",
  "sourcePath": "/Users/krittametchuwongworaphinit/Desktop/Blockchain Termproject/FirstDapp/quiz/contracts/Quizy.sol",
  "compiler": {
    "name": "solc",
    "version": "0.8.17+commit.8df45f5f.Emscripten.clang"
  },
  "schemaVersion": "3.4.10",
  "updatedAt": "2022-10-01T18:00:43.134Z",
  "devdoc": {
    "kind": "dev",
    "methods": {},
    "version": 1
  },
  "userdoc": {
    "kind": "user",
    "methods": {},
    "version": 1
  }
}